:020000040800F2
:10000000C8DB00208502000887100008250F0008C3
:10001000F10F0008AB0B00086D4400080000000061
:10002000000000000000000000000000793F000810
:10003000410D000800000000270B0008B141000836
:100040009F0200089F0200089F0200089F0200080C
:100050009F0200089F0200089F0200089F020008FC
:100060009F0200089F0200089F0200089F020008EC
:100070009F0200089F0200089F0200089F020008DC
:100080009F0200089F0200089F0200089F020008CC
:100090009F0200089F0200089F020008D90D000877
:1000A0009F0200089F0200089F0200089F020008AC
:1000B0009F0200089F0200089F0200089F0200089C
:1000C0009F0200089F0200089F0200089F0200088C
:1000D0009F0200089F0200089F0200089F0200087C
:1000E0009F0200089F0200089F0200089F0200086C
:1000F0009F0200089F0200089F0200089F0200085C
:100100009F0200089F0200089F0200089F0200084B
:100110009F0200089F0200089F0200089F0200083B
:100120009F0200089F0200089F0200089F0200082B
:100130009F0200089F0200089F0200089F0200081B
:100140009F0200089F0200089F0200089F0200080B
:100150009F0200089F0200089F0200089F020008FB
:100160009F0200089F0200089F0200089F020008EB
:100170009F0200089F0200089F0200089F020008DB
:100180009F0200089F02000800F002F800F06BF8E0
:100190000AA090E8000C82448344AAF10107DA45E2
:1001A00001D100F060F8AFF2090EBAE80F0013F0C9
:1001B000010F18BFFB1A43F0010318474CC10000A0
:1001C0006CC100000A444FF0000C10F8013B13F022
:1001D000070408BF10F8014B1D1108BF10F8015BA0
:1001E000641E05D010F8016B641E01F8016BF9D193
:1001F00013F0080F1EBF10F8014BAD1C0C1B09D1EA
:100200006D1E58BF01F801CBFAD505E014F8016B5B
:1002100001F8016B6D1EF9D59142D6D370470000ED
:100220000023002400250026103A28BF78C1FBD8FF
:10023000520728BF30C148BF0B607047642900F0E7
:10024000CD80632900F09083732900F0958300200E
:1002500070471FB508F093F99DE8030000F0AAFA73
:100260001FBD10B510BD00F0CDFB1146FFF7F1FF2B
:1002700004F0E2FF00F0EBFB03B4FFF7F2FF03BC76
:1002800004F0FCF80948804709480047FEE7FEE70C
:10029000FEE7FEE7FEE7FEE7FEE7FEE7FEE7FEE736
:1002A00004480549054A064B7047000039420008DA
:1002B00089010008C8C30020C8DB0020C8C700208F
:1002C000C8C7002072B6704762B67047EFF310805F
:1002D00072B6704780F31088704730BF704720BFF8
:1002E0007047B0FA80F0704790FAA0F0B0FA80F052
:1002F000704790FAA0F07047704770B5A0FB0140BE
:10030000B4F1805170F1000024BF002070BD204680
:1003100000F07FFA05001CBF214600F0E1F92846F5
:1003200070BD70B50446051F00F028FA0068002C67
:1003300014BF446870BD002C18BFAC423CBF2046BF
:100340006468F8D301680A18AA4218BF456003D14F
:100350002A6805461144016028684119A1421CBF62
:100360006C6070BD6168696021680844286070BD78
:100370000FB4044910B503AA029800F001FB10BCA9
:100380005DF814FB0400002070B50C460546012AF8
:1003900005D02878800600D5EA69002302E0012311
:1003A00005E05B1C934202D2E05C0028F9D1A86909
:1003B000E618C01AA861286A184428622846AFF3D4
:1003C000008004E0D5E9012114F8010B9047B44204
:1003D000F8D32846AFF3008070BD00002DE9F0414E
:1003E0000646002410687529314616A510D0AFF3D3
:1003F0000080002802DA404213A507E031688A072E
:1004000001D512A502E0490704D511A5012401E098
:10041000AFF3008000210A2206F1240709E0B0FBB7
:10042000F2FCB0FBF2F302FB1C00303078541846AB
:10043000491C0028F3D123462A463046BDE8F04146
:1004400000F016BA000000002D0000002B00000094
:10045000200000002DE9F05F894604464FF0000AB5
:10046000DFF874B1FB44C0F820A02046E16888475B
:10047000002874D0252806D0D4E901219047206AAD
:10048000401C2062F1E700265F462046E16888476D
:100490002028054607DB312D05D2781910F8200CED
:1004A00008B10643F1E7B00701D526F00406C4F809
:1004B0001CA00027C4F818A02A2D09D0284603F054
:1004C000D6FF38B304EB8708303DC8F8185019E060
:1004D00059F8041B204604EB87029161E1688847C4
:1004E000012F054618D1E069002820DA26F0200601
:1004F0001DE0D8F8180000EB800005EB4000303814
:10050000C8F818002046E1688847054603F0AFFFA9
:100510000028EED1012F0AD02E2D08D12046E16807
:1005200088477F1C0546022F46F02006C4DBA069E1
:10053000002803DA404246F00106A061F00701D02E
:1005400026F010066C2D0BD0682D09D04C2D39D01B
:100550006A2D35D0742D35D07A2D33D016E038E0A1
:10056000E1682F4620468847B842054609D16C2FDE
:1005700026D04FF48060E168064320468847054650
:1005800004E06C2F1AD04FF4807006430DB3A5F130
:100590004100192802D8203546F400664A4629460B
:1005A000204626604E46FFF749FE80B101280BD059
:1005B000F61D26F0070000F1080956E74020E4E7A1
:1005C0008020D8E70020D6E706F104094DE7284649
:1005D00052E7206ABDE8F09F50BB0000032A40F2BA
:1005E000308010F0030C00F0158011F8013BBCF1D5
:1005F000020F624498BF11F801CB00F8013B38BFED
:1006000011F8013BA2F1040298BF00F801CB38BFFA
:1006100000F8013B11F0030300F02580083AC0F018
:10062000088051F8043B083A51F804CBA0E80810C0
:10063000F5E7121D5CBF51F8043B40F8043BAFF3F3
:100640000080D20724BF11F8013B11F801CB48BF4D
:1006500011F8012B24BF00F8013B00F801CB48BF83
:1006600000F8012B704710B5203AC0F00B80B1E8BC
:100670001850203AA0E81850B1E81850A0E81850D7
:10068000BFF4F5AF5FEA027C24BFB1E81850A0E8E0
:10069000185044BF18C918C0BDE810405FEA827CFA
:1006A00024BF51F8043B40F8043B08BF7047D20711
:1006B00028BF31F8023B48BF11F8012B28BF20F8B2
:1006C000023B48BF00F8012B704701F0FF031146C1
:1006D00001B543EA032242EA024200F003F801BDF9
:1006E0004FF000020429C0F0128010F0030C00F05B
:1006F0001B80CCF1040CBCF1020F18BF00F8012BD9
:10070000A8BF20F8022BA1EB0C0100F00DB85FEAA6
:10071000C17C24BF00F8012B00F8012B48BF00F872
:10072000012B70474FF0000200B5134694469646E1
:10073000203922BFA0E80C50A0E80C50B1F12001F4
:10074000BFF4F7AF090728BFA0E80C5048BF0CC0A2
:100750005DF804EB890028BF40F8042B08BF704700
:1007600048BF20F8022B11F0804F18BF00F8012B72
:1007700070477047704770477047000000487047E7
:100780006CC30020704770477047704738B5044607
:100790000A4600206946AFF30080002808BF38BD34
:1007A00002460099204600F008F9012038BD0120DA
:1007B00000F021B9F8B5AFF30080054600200C46E3
:1007C000102000BF0646A819A0420DD9324669463E
:1007D0000020AFF30080070008BF00F00CF900987C
:1007E000A04218BF0546C419FFF7C8FF05600746B9
:1007F000F01D20F007004619284600F0D7F8B44253
:1008000008BFF8BDA21B31463868BDE8F84000F0CB
:10081000D4B870B50646FFF7B1FF056806F10B00C6
:1008200020F00704B4429CBF002070BD2B466A68CC
:10083000BAB11068A04210D304F1080188423CBF4D
:100840005068586007D35168101941601168091B3E
:10085000016058601460101D70BD13465268002A74
:10086000E7D121462846FFF791FF0028DED170BD71
:100870002DE9F0470D4699469246044600F12408BA
:100880000168880604D5E06921F01001216000E0CC
:100890000120A84201DD471B00E00027A1697A1969
:1008A00002EB0900081AA0612078C00602D4204695
:1008B000AFF30080002608E0D4E901211AF8060011
:1008C0009047206A401C761C20624E45F4DB20785D
:1008D000C0060AD52046AFF3008006E0D4E9012126
:1008E00030209047206A401C2062381EA7F1010783
:1008F000F4DC07E0D4E9012118F805009047206AEC
:10090000401C2062281EA5F10105F3DC2046AFF350
:1009100000802078000602D50220BDE8F087012083
:10092000FBE7000001694A1C02610878704700B5C6
:100930008FB0CDE901310021059105497944CDE918
:10094000031011466846FFF785FD0FB000BD00009B
:10095000E5FFFFFF10B5436913B1AFF3008001E07D
:10096000FFF712FD012010BD127800F124010A707A
:1009700000224A700122EDE711684FF0FF32E9E7EB
:10098000074B70B50D467B44FFF7D1FF0446284660
:1009900000F02DF810B14FF0FF3070BD204670BD53
:1009A000334400000048704764C300200021016008
:1009B000C0E90110704710207047034640688C461C
:1009C000002818BF88423CBF03464068F8D3186827
:1009D0001844884207D00CF1030020F00700001DE6
:1009E000411A521A0146081D0A60FFF79ABC007BA3
:1009F00000F08000704710B500F038F8BDE81040F6
:100A000000F02EB87546FFF7CDFFAE4605006946EB
:100A1000534620F00700854618B020B5FFF740FC8C
:100A2000BDE820404FF000064FF000074FF00008EF
:100A30004FF0000B21F00701AC46ACE8C009ACE870
:100A4000C009ACE8C009ACE8C0098D46704710B5D4
:100A50000446AFF300802046BDE81040FFF70CBC11
:100A6000002801D003F00ABD7047000010B501282E
:100A700005D0002103A000F021F8012010BD09A13C
:100A8000F8E7000053494752544D454D3A204F7501
:100A900074206F662068656170206D656D6F727976
:100AA000000000003A2048656170206D656D6F722E
:100AB0007920636F727275707465640070B5054655
:100AC0000C460A2000E06D1C03F0DAFC35B12878F2
:100AD0000028F8D102E0641C03F0D2FC14B12078A5
:100AE0000028F8D1BDE870400A2003F0C9BC00001E
:100AF00022484FF6FF710170002080F309882048DA
:100B0000016881F308881F484FF08051016062B688
:100B1000FEE71C484FF080510160704719484FF0C4
:100B200080510160704772B6EFF3098050B11EF03A
:100B3000100F08BF20ED108A203880E8F00F12490E
:100B40000968086000B5114880475DF804EB10485B
:100B500010490A7802700C480F490A680260106850
:100B600090E8F00F20301EF0100F08BFB0EC108A94
:100B700080F309884EF0040E62B6704722ED00E063
:100B80005000002004ED00E01C010020651E00085C
:100B9000AE000020AF000020200100201FB56846F5
:100BA00003F0A2F9019804B010BDFEE7054910B5A5
:100BB0000020486000F0A6F800F006F8BDE81040FC
:100BC00000F086B8340000202DE9F041104F0026D7
:100BD00035463E807E80BE60FE607E61BE613E61C5
:100BE000FFF774FB804600247E6100F049F800F0B6
:100BF00057F87869641C24040544240CF4D0C7E930
:100C000004564046BE61BDE8F041FFF763BB0000FB
:100C10003400002003490969884201D9401A70470D
:100C2000002070473400002010B5FFF74FFB044947
:100C30004C69FFF74FFB2046BDE81040FFF7EABFC5
:100C40003400002010B5FFF7EFFF0446FFF73EFB2E
:100C5000034A00215161FFF73DFB204610BD000013
:100C60003400002010B5FFF731FB04498C69FFF711
:100C700031FB2046BDE81040FFF7CCBF3400002018
:100C800010B5064C2088401C2080608810B900F008
:100C900051F8A0606088401C608010BD34000020C6
:100CA00010B50A4C6088401E0004000C60800CD116
:100CB00000F040F8E060A168401A6169814200D20A
:100CC0006061A169814200D2A06110BD34000020A2
:100CD00010B5FFF7FBFA0446FFF7D2FF10210548D5
:100CE00000F087F9FFF7DCFF2046BDE81040FFF772
:100CF000F1BA0000288700200149486070470000D1
:100D00003400002010B5FFF749FF08490A6842F097
:100D100080720A60064900224A600A6842F00102B5
:100D20000A60BDE81040FFF7E7BF0000FCED00E0FF
:100D3000001000E00148406870470000001000E02B
:100D400070470000F8B5054614480078012806D021
:100D50000024601E4FF4FA7600EB45051AE0104CB3
:100D60002088854205D3B5FBF0F06A46002101F0EA
:100D7000ADF82088B5FBF0F100FB1150002804D03D
:100D80004FF47A71484300F00DF8F8BD304600F09A
:100D900009F8641CA542F9DCF8BD000080000020C1
:100DA0000200002070B54FF0E0256C690949AB697D
:100DB000097848430021AA699A42FCD002D2A3EBE9
:100DC000020302E0A4EB02063344194413468142B5
:100DD000F1D370BD0000002010B500F03BFA4020B8
:100DE00000F02CF8012802D1402000F021F88020EA
:100DF00000F024F8012802D1802000F019F84FF407
:100E00008074204600F01AF8012802D1204600F034
:100E10000FF84FF40074204600F010F8012802D1BA
:100E2000204600F005F8BDE8104000F023BA0000AD
:100E30000149086070470000143C0140034A014624
:100E4000002012680A4200D001207047143C014083
:100E5000CAB2090A10B5CBB2090ACCB2090A00EB32
:100E6000810100EB8404896CD4F848440C4400EB05
:100E7000830100EB8200D1F84818D0F8480C61409B
:100E8000084410BDF0B5002201274FF0030C0B6899
:100E900007FA02F52B40AB422CD1066853000CFA3E
:100EA00003F4A64306600E79D0F800E09E4046EABF
:100EB0000E0606600E79012E01D0022E12D1866830
:100EC000A64386604E79D0F808E09E4046EA0E06BA
:100ED00086604668AE43466045688E799640B6B2F5
:100EE00035434560C568A543C560CC799C40C3685F
:100EF0001C43C460521C102AC9D3F0BD4B07DB0E43
:100F00009A40C90810B500EB8100016A0F249C408B
:100F1000A1430162016A1143016210BD4183704720
:100F200001837047FEE700001CB50121102002F08C
:100F3000C3FF0820009001208DF8040002218DF8E5
:100F400005108DF8070000208DF80600694602485C
:100F5000FFF798FF1CBD0000001002401CB50121E6
:100F6000102002F0A9FF1020009001208DF804004D
:100F700002218DF805108DF8070000208DF806007D
:100F800069460248FFF77EFF1CBD000000100240CA
:100F90001CB50121402002F08FFF4FF4007000903B
:100FA00001208DF8040002218DF805108DF807004E
:100FB00000208DF8060069460148FFF763FF1CBD5D
:100FC00000180240012000F001B8000070B504468E
:100FD000FFF77CF90546FFF753FE04480460FFF76E
:100FE0005FFE2846BDE87040FFF774B92C00002072
:100FF000FEE70A46002100F023B800000D480E4924
:101000000246C0E9001200218160C16001614161B6
:101010008161C16101620163C162416200F1480105
:101020008163C1634FF4D8410164416403480260A5
:1010300070470000E01A0020484541503000002071
:1010400010B5002A1ED000281CD000231C46641CAA
:1010500041EA0323042CFAD310F0030404D109E07D
:10106000521E00F8011B641C22B1042CF8D301E0CD
:1010700008C0121F042AFBD202E000F8011B521E16
:10108000002AFAD110BD704770470000024800687E
:10109000002800D0004770476400002010B50446C7
:1010A00000F0BEF8464800220A210270454802704E
:1010B0004548027045480260454802604548027054
:1010C0004548027045480270454802604548026044
:1010D000454802604548027045480068B0FBF1F0A1
:1010E000444908604449086830B14448006818B170
:1010F000096804C0491EFCD14148026041480260B1
:101100004148026041480260414802604148026033
:10111000414802604148027001F066FC01F022FD86
:10112000204600F073FF2088002847D1204601F0B8
:1011300069FA2088002841D1204601F06FFA208802
:1011400000283BD1204601F005FB2088002835D13E
:10115000204601F073FC208800282FD1204601F0A2
:1011600029FE2088002829D1204602F08BF820880B
:10117000002823D1204601F0B9F9208800281DD18C
:10118000204601F04DF82088002817D1204602F0B3
:10119000E1FC2088002811D1204601F0D1FF2088F1
:1011A00000280BD1204602F029FD2088002805D117
:1011B00000F02AFFBDE81040FFF766BF10BD000039
:1011C0007800002080000020C80000201C010020C2
:1011D00020010020AE000020AF000020B000002061
:1011E000BC000020C0000020C4000020D00000206F
:1011F000E0850008CC000020BC850008B885000808
:10120000580000205C0000206000002064000020E6
:10121000680000206C00002070000020FE0000200C
:1012200030B5094C0020094B0246216801E004C199
:10123000401C1D68A842FAD32068054900EB8500D0
:10124000001F086030BD0000B8850008BC8500089C
:101250005000002005480078012805D1044908788D
:10126000FA2801D2401C087070470000800000205E
:1012700078000020194810B5007801282DD1FFF71B
:1012800025F817490446087810B3401E10F0FF00F7
:1012900008701DD113480078D0B901F093FB1249B2
:1012A0000870124900EB400051F820001049086016
:1012B0001049096888420BD050F8901F491C016002
:1012C0000D480168491C01600C494FF080500860CE
:1012D0002046BDE81040FEF7FDBF10BD8000002095
:1012E00078000020C8000020AF000020649D00208E
:1012F000200100201C010020F400002004ED00E08B
:10130000164810B50078002826D115480078002826
:1013100022D1FEF7DBFF044601F054FB11490870AF
:10132000114900EB400051F82000104908601049B5
:10133000096888420BD050F8901F491C01600D4885
:101340000168491C01600C494FF08050086020463C
:10135000BDE81040FEF7BEBF10BD000078000020C1
:10136000C8000020AF000020649D00202001002064
:101370001C010020F400002004ED00E070B50446DC
:101380001248007810B146F662501DE0104800780F
:10139000012802D045F6896016E00E4D2878FA281B
:1013A00002D345F209200FE0FEF790FF0646FFF753
:1013B00067FC2878401C287001F09CFCFFF770FC4B
:1013C0003046FEF787FF0020208070BD78000020A7
:1013D00080000020C80000202DE9F04116460C4690
:1013E0000546FEF773FF0746FFF74AFC29460D48FE
:1013F0000025012901D0057001E0012101700A4892
:101400000CB1046005E009490A220968B1FBF2F158
:101410000160FFF745FC3846FEF75CFF3580BDE80C
:10142000F0810000D0000020CC000020E085000802
:1014300070B504461848007810B146F6655029E0AA
:1014400016480078012802D045F6896022E0144E43
:10145000307890B1FEF73AFF0546FFF711FC30787F
:10146000401E10F0FF0030700AD0FFF719FC28462C
:10147000FEF730FF46F663500CE046F6645009E094
:1014800001F046FCFFF70CFC2846FEF723FFFFF7B0
:1014900037FF0020208070BD7800002080000020F1
:1014A000C800002070B50F4D0446287818B145F6E5
:1014B0008A60208070BD01F085FA0B4908700B49E5
:1014C00008700B4900EB400051F820000949086002
:1014D0000949086001202870FFF70AFB43F69920AC
:1014E000E7E7000080000020AF000020AE000020F1
:1014F000649D0020200100201C0100202DE9F04106
:101500000746FEF7E3FE0446FFF7BAFB2E48002528
:1015100005602E4805802E4805802E4805602E481F
:1015200005602E4805602E4805602E4805602E484F
:101530000581FFF7B5FB2046FEF7CCFEFEF7C6FEA1
:101540000646FFF79DFB2948046818E0FEF7BEFE3B
:101550000646FFF795FBC4F8B450C4F8B85044F8F9
:10156000785F2563A561A582E5826562A562FFF7C4
:10157000E1FB44F8200FA4F134008581A46AFFF751
:101580008FFB3046FEF7A6FE002CDFD1FEF79EFE55
:101590000646FFF775FB1648046806E0FEF796FE60
:1015A0000646FFF76DFBA585A469FFF779FB30467A
:1015B000FEF790FE002CF1D102F0EAF902F0ECFB0C
:1015C0003D80BDE8F0810000940000208E000020E6
:1015D000DE000020F0000020040100200C010020AB
:1015E0007C000020C0000020589D0020F800002052
:1015F000B4000020F8B504466946244800F008FC11
:10160000BDF8000058BB6A460021022000F05EFCD5
:10161000BDF8000018BBFEF759FE0746FFF730FB88
:101620001B4E00253560FFF73BFB3846FEF752FEA8
:10163000184919480A6803689A4202D9B2FBF3F0C4
:1016400010B90A21B2FBF1F06A46002100F03EFC1D
:1016500069460E4800F0F2F9BDF8000008B120809C
:10166000F8BDFEF733FE0746FFF70AFB0B480C49AF
:101670000560306808600B4901200870FFF710FB17
:101680003846FEF727FE2580F8BD000074A0002034
:10169000E0000020E0850008CC850008F000002074
:1016A000E4000020EC00002002480068002800D080
:1016B00000477047680000202DE9FF4F83B00446C3
:1016C0007248DDE91785DDE910970078DDF854A050
:1016D000139E10B147F24A102AE04CB1059850B160
:1016E00067B16B48006886420BD246F630601FE057
:1016F00047F2AD101CE047F24F1019E046F62F609C
:1017000016E01298B04202D346F6316010E046F27D
:101710007320B9F1200F0BD25FEA090103D0B9F1B0
:101720001F0F02D008E05B4900E05B498C4203D008
:10173000288007B0BDE8F08F204601F0B3FD4FF0E0
:10174000000BA5F800B05FEAC8700AD05FEA8870A5
:1017500007D5384600215A4601E004C0491CB14271
:10176000FBD31298CDE9006807EB8005DDE90501A0
:101770002B463A4600F0AEFA0599A1620699E1625D
:101780000499216284F83790C4F854A0A5602060C1
:101790005FEA0A0024D0A06516986762A6636060BD
:1017A000A4F83C800020594604EB8002401CD1671D
:1017B00010F0FF00F8D004F16400149900F07EFFEF
:1017C000204600F075F8FEF781FD0646FFF758FA4F
:1017D000324D2878401CC0B22870012803D004E0A4
:1017E0002F480068D7E701F085FAFFF759FA30462D
:1017F000FEF770FD94F8370001F000F9204601F083
:10180000F7F9204601F010FD26490888401C0880A1
:1018100025480078012821D0FEF758FD0446FFF73F
:101820002FFA2878401E10F0FF0129700ED101F028
:101830006FFA1E48008848B1FFF732FA2046FEF7DB
:1018400049FD07B0BDE8F04F01F030BAFFF728FAC4
:1018500007B02046BDE8F04FFEF73CBDFEF736FD71
:101860000446FFF70DFA2878401E10F0FF0129709A
:1018700001D101F04DFAFFF713FA2046FEF72AFDD9
:1018800007B0BDE8F04FFFF73BBD00007800002037
:10189000DC850008909C0020C89B0020C800002028
:1018A000CC000020FC000020800000208C000020E4
:1018B00002490968002900D00847704758000020F5
:1018C0002DE9F041044652480D46007810B147F228
:1018D0004E100AE04F48844202D147F24C1004E017
:1018E0004D48844204D147F24D100880BDE8F08194
:1018F0005CB9FEF7EBFC0646FFF7C2F947480468FF
:10190000FFF7CEF93046FEF7E5FCFEF7DFFC0746B1
:10191000FFF7B6F9424E3078401CC0B23070012853
:1019200001D101F0E7F9FFF7BBF93846FEF7D2FC29
:1019300094F8360008283DD2DFE800F004080C0CCB
:101940001C080C0C204601F087F913E0204602F039
:1019500003F80FE0204601F0FFFF94F83400072859
:1019600008D2DFE800F0070407040404040020465E
:1019700000F09BFF04F1640000F086FE204600F0BA
:1019800055F8204601F062FC26490888401E088070
:10199000204601F087FCFF2084F83600FEF796FC15
:1019A0000446FFF76DF93078401E10F0FF013170EA
:1019B00021D022E0FEF78AFC0446FFF761F9307877
:1019C000401E10F0FF0131700CD101F0A1F9164852
:1019D000008838B1FFF764F92046FEF77BFC01F080
:1019E00065F904E0FFF75CF92046FEF773FC46F664
:1019F0002D6028807AE701F08BF9FFF751F9204636
:101A0000FEF768FC00202880BDE8F041FFF778BCB5
:101A100078000020C89B0020909C00201C01002022
:101A2000C8000020FC0000208C000020024909684A
:101A3000002900D0084770475C0000207FB50D46A4
:101A40000446FEF743FC0646FFF71AF91CB113489B
:101A50000068844208D1FFF723F93046FEF73AFCCC
:101A600047F2571028807FBDFFF71AF93046FEF77E
:101A700031FC0B48007850B10022CDE902250092DC
:101A8000134601922146074800F0FEFB7FBD04B0DB
:101A900029462046BDE8704001F018BD1C01002019
:101AA000780000205452455302490968002900D0AB
:101AB00008477047600000202DE9F04781465748ED
:101AC00014461D460078884610B146F2AE1006E076
:101AD000080006D0B1F5004F03D045F62560188008
:101AE0003DE0002604B12660FEF7F0FB8246FFF7DA
:101AF000C7F84B4F3868416CD9B1491E88464164DC
:101B00000CB1006C2060FFF715F939680A6C801A77
:101B1000C1F8A400D1F8A820824201D2C1F8A800DF
:101B2000FFF7BEF85046FEF7D5FB2E804046BDE8D5
:101B3000F0875FEA084007D5FFF7B2F85046FEF796
:101B4000C9FB46F2B01009E03648017849B1FFF709
:101B5000A7F85046FEF7BEFB46F6635028800020EB
:101B6000E5E701218046017001F0C4F8FFF798F81D
:101B70005046FEF7AFFB00214B460722084600F017
:101B8000F5FDFEF7A3FB8146FFF77AF898F8000011
:101B9000401E10F0FF0088F8000001D101F0B8F8F5
:101BA000FFF77EF84846FEF795FBFFF7A9FBFEF727
:101BB0008DFB8046FFF764F8396891F8350030B145
:101BC000012816D003281AD046F62E601BE074B107
:101BD000086C2060FFF7AEF839680A6C801AC1F80B
:101BE000A400D1F8A820824201D2C1F8A8002E801A
:101BF0000AE00CB1086C206046F2A91003E004B1C1
:101C0000266047F2D92028803868446CFFF748F8EE
:101C10004046FEF75FFB204689E700007800002081
:101C20001C010020C80000202DE9F0470546274888
:101C300016460F4600781C4610B147F259100AE0CC
:101C400046F2D5203FB136B1FEF740FB8146FFF7A3
:101C500017F81DB104E01880BDE8F0871C4805683E
:101C60004FF00008286858B195F83C00C00713D021
:101C7000FFF716F84846FEF72DFB0020696A1AE0C8
:101C8000FFF70EF84846FEF725FBC7F8008047F23D
:101C90005210C6F800800AE0FFF702F84846FEF747
:101CA00019FBC7F8008047F25410C6F80080208066
:101CB000D2E7401C091D0A68002AFAD03860A96BD7
:101CC000081A3060A4F80080C6E700007800002001
:101CD0001C01002030B5044603984FF4805502EBF8
:101CE000800020F00700002240E90252152540F84C
:101CF0000C5C142540F8105C132540F8145C122588
:101D000040F8185C112540F81C5C102540F8205C58
:101D1000092540F8245C082540F8285C072540F890
:101D20002C5C062540F8305C052540F8345C042521
:101D300040F8385C032540F83C5C022540F8405CE4
:101D4000012540E912252A0640E914422F4A40F8AD
:101D5000542C4FF0123240F8582C4FF0033240F818
:101D60005C2C4FF0023240F8602C40E91A1331210C
:101D700040F86C1C302140F8701C292140F8741C7C
:101D8000282140F8781C272140F87C1C262140F8A7
:101D9000801C252140F8841C242140F8881C232124
:101DA00040F88C1C222140F8901C212140F8941C02
:101DB000202140F8981C192140F89C1C182140F85B
:101DC000A01C172140F8A41C162140F8A81C4FF0B5
:101DD000113140F8AC1CD10040F8B01C4FF0093173
:101DE00040F8B41C910040F8B81C4FF0073140F89F
:101DF000BC1C4FF0063140F8C01C4FF0053140F8D4
:101E0000C41D510040F8041D30BD0000CD35000850
:101E10001FB5104A904202D147F25B1004E00E4A0F
:101E2000904203D147F25C1008801FBD0B4A127824
:101E300052B10022CDE902210146009213460192DF
:101E4000074800F021FA1FBD04B0BDE8104001F0C2
:101E50008DBC0000C89B0020909C002078000020D2
:101E60005453555370B51548006800B18047FEF7CC
:101E700061FF134C134A21681268914207D0D1F8D0
:101E80009830C31A41F8943F8D682B448B60C2F898
:101E90009800FEF7D7FE2168D1F8B420824201D223
:101EA000C1F8B400084AD1F8B8301068834201D2B2
:101EB000C1F8B8000020106070BD00006C00002068
:101EC0001C01002020010020C40000202DE9F04169
:101ED000804636480D461446007810B147F275200A
:101EE00020E0334E307810B146F663501AE045B129
:101EF000022D06D0042D07D0082D02D045F625600E
:101F000010E0B8F1000F0BD0FEF7E0F90746FEF73E
:101F1000B7FE3078401CC0B23070012805D006E012
:101F200047F27E201080BDE8F08100F0E3FEFEF76E
:101F3000B7FE3846FEF7CEF91E4F0121234638681A
:101F40002A4680F83610414601F09AFC208898B164
:101F5000FEF7BCF90446FEF793FE3078401E10F001
:101F6000FF01317001D100F0D3FEFEF799FE20464B
:101F7000BDE8F041FEF7AEB9386800F06DFEFEF73F
:101F8000A5F90546FEF77CFE3078401E10F0FF01F3
:101F9000317001D100F0BCFEFEF782FE2846FEF74C
:101FA00099F9FFF7ADF900202080BCE77800002008
:101FB000C80000201C01002000B585B000F01CF80E
:101FC000FEF7B8FE04AA002103920091CDE90110AA
:101FD00006480749002300781A4600EB400001EB51
:101FE0008001044800F050F905B000BDAE000020AB
:101FF000649D00205449434B02480068002800D0EB
:10200000004770477000002070470000034A00211D
:102010001160034A11800180704700009800002081
:102020009C0000202DE9F05F9A4690460D4604463C
:102030000A9EFEF74BF98346FEF722FE5FEA080090
:1020400023D0012807D0B0F5004F1ED06FF4004117
:1020500018EB010F11D1206AA843C4E9080A208AAD
:1020600004F108054FF0000990B14D4F3878401C3D
:10207000C0B23870012815D016E0FEF711FE5846A0
:10208000FEF728F945F625606CE0206A2843E4E76E
:10209000FEF706FE5846FEF71DF9A6F80090206AE6
:1020A000BDE8F09F00F026FEFEF7FAFD5846FEF769
:1020B00011F92D6833E090F888106D6801F00F0178
:1020C00001291BD0022921D004290DD0082910D0C4
:1020D000FEF7FCF80446FEF7D3FD3878401E10F0FA
:1020E000FF0139702AD036E0216AD0F880201140F3
:1020F00009E0216AD0F8802011400BE0D0F8801070
:10210000236A0A4699438A4205D007E0D0F8801036
:10211000226A914311B1524600F046F815B1A86801
:102120000028C8D1FEF7D2F80546FEF7A9FD387899
:10213000401E10F0FF00387017D018E000F0E8FDE6
:102140001848008838B1FEF7ABFD2046FEF7C2F80C
:1021500000F0ACFD04E0FEF7A3FD2046FEF7BAF860
:1021600043F6FF20308000209AE700F0D1FDFEF713
:1021700097FD2846FEF7AEF85FEA084001D4FFF766
:10218000BFF8FEF7A3F80546FEF77AFD246AFEF7CE
:1021900087FD2846FEF79EF8A6F8009020467FE7C8
:1021A000C80000208C00002070B50025C0F8841005
:1021B00080F8355080F834500446026490F83600B8
:1021C00008280ED2DFE800F00D0D04040D0D0A0AF8
:1021D000204601F06DF984F8365002E0042084F8BE
:1021E00036002046BDE8704000F05FBB0A4C0B4D46
:1021F000FEF76CF80646FEF743FD2068401C2060A1
:102200002868401C2860FEF74BFD3046FEF762F858
:10221000FEF73CFFECE7000074000020E000002027
:1022200000B50E4A89B0002111600B22059106917C
:10223000CDE907200A480B4A0B4B006812681B685F
:102240000292CDE903011F20CDE900030023074AD4
:1022500007A10C48FFF730FA09B000BD7400002058
:10226000A08500089C85000898850008ED210008DD
:1022700075432F4F532D4949492049646C652054BB
:1022800061736B00C89B00202DE9F84F1D46DDE906
:102290000CB4DDE90AA916460F468046FEF716F88B
:1022A0000090FEF7EDFC1D491D4A088812889042F7
:1022B0002DD2401C80B208801A490A88824200D27E
:1022C0000880194A01211068C0F80080C0E9027630
:1022D0000582C0F814A0A0F81890C0F81CB040689F
:1022E000106012480181124901604160002000F035
:1022F00085FB1048007808B10F4908700020208045
:10230000FEF7CEFC0098BDE8F84FFDF7E3BF0B48A1
:102310000188491C018044F25360F0E78C000020E2
:10232000A88500088E00002084000020649D002005
:10233000909C0020AE000020B00000209000002003
:102340003EB5374C374A02AB206801688D1A91427E
:1023500045D015DC344A89182DD0344A891822D04A
:10236000334A891832D0334AD14208D1C169CDE904
:102370000013038B028AC168806800F0F7FF3EBD3E
:102380002D4969181DD02D4A891823D02C4AD142D5
:10239000F5D1C169CDE90013038B028AC168806859
:1023A00000F058FB3EBD0093028BC3694169806811
:1023B000FFF738FE3EBD018BC269806800F006FD64
:1023C0003EBD8068194601F081F83EBD018BC269AF
:1023D000806822E08068194601F0C8F93EBD1948BE
:1023E0001949007800EB400001EB800000F0AEFCE2
:1023F000206802AB0021C269144801F0F3F81449C7
:102400000868401E0860E9D1124800680860FEF7BD
:1024100091FC024602AB00210F4801F0E3F83EBDFB
:10242000880000205449434BADBAB2BE0DF90BFAF7
:10243000F2F8F7FF0006F6FF00F7FDF700FFEFFFE9
:1024400003FE0FFEB0000020649D0020AC9F002022
:10245000180100201401002074A000201F4E204C01
:102460000025204FFDF732FF8046FEF709FC20884B
:1024700020B3FEF715FC4046FDF72CFFFEF75AFC93
:102480008046FFF75DFFFEF755FC3168A0EB0800C2
:10249000814200D23060FDF719FF8046FEF7F0FB65
:1024A0003868406838602088401E2080FEF7F8FBBE
:1024B0004046FDF70FFF002DD4D0D1E70A49002098
:1024C00008810860486000F0A9FAFEF7E9FB404681
:1024D000FDF700FFFEF714FFC2E7000094000020A4
:1024E0008C00002088000020649D0020F0B52F495A
:1024F0002F4D89B000240C80296831B12D4E3188D0
:10250000022905D244F2546135E044F2526132E0CE
:1025100029490023294F0C60296801F1200210E0AD
:1025200041F8087B5B1C41F8084B9BB241F8044C16
:1025300021F8104B41F80C4C21F8084C41F81C2CA8
:102540002032B6F800C06345EAD32A6841F81C2C53
:102550001B490A601B490A601B491D4A0C801B4924
:102560000C80116851B11B491B4D0B682D68AB42A3
:1025700007D244F25661018009B0F0BD44F25561C2
:10258000F9E7032305940694CDE907300868134959
:10259000126800230968CDE903040094CDE9012104
:1025A0000F4A10A11648FFF787F8E5E790000020D2
:1025B000A4850008A8850008940000204E4F4E45D1
:1025C00084000020880000208C0000208E00002065
:1025D000AC850008B4850008DC850008B0850008DB
:1025E0005D24000875432F4F532D49494920495315
:1025F00052205175657565205461736B00000000B1
:10260000909C0020034A00211160034A1180018040
:1026100070470000A0000020A4000020F0B5174E75
:10262000316859B1164F398859B13B8831685B1E02
:102630009DB2002301F110021C460FE045F21E710D
:1026400001E045F21D710180F0BDE1E802245B1C50
:1026500021F8084B9BB241F8044C1032AB42F4D342
:102660000C604C600C81CC60064932680A603A8884
:102670008A80CC800C810480F0BD0000C4850008F5
:10268000C0850008589D002010B5428992B10A49C2
:1026900003680C681C6043680B60CB8844891B1B73
:1026A000CB808B88448923448B80002141818181A8
:1026B00001604160104610BD589D0020018100213D
:1026C000418181810160416070470000F0B544891B
:1026D000DDE905E60589AC4202D346F293501EE0DF
:1026E0001B4DAF88CFB12C687F1ED4F800C0C5F851
:1026F00000C0AF80EF887F1CBFB2EF80B5F808C084
:10270000BC4500D22F814789002557B1DB060ED486
:1027100003681C60046025600CE045F21D70308089
:10272000F0BD0460012344604381256005E04368F7
:102730002360446043895B1C4381878943899F42AE
:1027400000D2838161602281C4F80CE03580F0BD45
:10275000589D0020034A00211160034A1180018026
:1027600070470000A8000020AC0000202DE9F041D7
:10277000114D07460C4628680026194680F834207B
:1027800080F8356000F03AFD64B1FC6004F10806A1
:1027900001223946286800F011F83946304600F029
:1027A00057F802E02868C687066320462968BDE816
:1027B000F04100F01BB800001C01002010B5C287DA
:1027C0000024234601630EE04B6041F8103B641C7B
:1027D00041F8103BA4B241F80C3C21F8083C41F808
:1027E000043C41F8180C9442EED310BD38B1426855
:1027F000C1F8C42081688968096AC161704791F88D
:102800003400022803D0072803D004A002E004A06B
:1028100000E005A0C1F8C4007047000020000000DF
:102820005461736B205100005461736B2053656DCC
:102830000000000005A2C1F8C420816811B18968B8
:10284000096A00E001A1C16170470000200000009A
:1028500030B58A68002592F8374002891AB1521CB7
:10286000028102680BE0012202814D600D6001606F
:1028700014E0936893F83730A34203D85268002AD3
:10288000F7D107E032B1136853B1C1E900325960A2
:10289000116030BD4D6042680A605160416030BDDA
:1028A0001160C1E90052016030BD70B50646C58FA8
:1028B000046B07E0E0682146083000F009F86D1E5F
:1028C000ADB22034002DF5D10020F087306370BD0B
:1028D00010B502890024012A0BD00A6862B14B6846
:1028E00073B153601A600289521E02814C600C6001
:1028F00010BD04604460F6E74A6814600260F2E7C5
:1029000054604260EFE7F8B50C46054691F8361082
:102910000026069808293BD2DFE801F03A3A040481
:102920003A3A202094F83410032911D0E265A4F833
:102930006030206435B12046FFF7B7FF21462846B6
:10294000FFF778FF204600F0B3FD84F836601BE007
:1029500000902146284600F022F8EBE794F8341066
:10296000032916D0E265A4F860302064204600F008
:10297000F3FF35B12046FFF798FF21462846FFF7C1
:1029800059FF042084F8360084F8356084F83460F8
:10299000F8BD00902146284600F001F8E6E770B542
:1029A0000C6B049DC98F0AE0E668864204D1C4E935
:1029B00004022383E56170BD491E89B220340029D9
:1029C000F2D170BD10B50024064802E02034E4B214
:1029D000001D01680029F9D00846FDF782FC20445B
:1029E000C0B210BD540000200020034A014642F846
:1029F0002010401CFBD070475400002000F01F0244
:102A000041090120C2F11F029040034A52F82130CF
:102A1000034342F8213070475400002000F01F02A9
:102A200041090120C2F11F029040034A52F82130AF
:102A3000834342F82130704754000020034A0021AC
:102A40001160034A1180018070470000B40000202B
:102A5000B80000202DE9FF4F83B01E46DDE9107A53
:102A600093468146FDF732FC0446FEF709F9DFF88C
:102A7000EC8098F80010491CC9B288F800100129B0
:102A800001D100F037F9FEF70BF92046FDF722FCE3
:102A9000B9F8104009F1080024B1B10500D40124AF
:102AA00005683AE0F00601D4002300E01023CDE9E8
:102AB000007A5A4609F120000499FFF707FEFDF756
:102AC00005FC0446FEF7DCF898F80010491E11F0EA
:102AD000FF0188F800100ED100F01AF92048008894
:102AE00048B1FEF7DDF82046FDF7F4FB07B0BDE87E
:102AF000F04F00F0DBB8FEF7D3F807B02046BDE892
:102B0000F04FFDF7E7BBA9686D685B460097484644
:102B1000049AFFF7F8FE641EA4B2002CF3D1FDF76F
:102B2000D5FB0446FEF7ACF898F80010491E11F0EA
:102B3000FF0188F8001001D100F0EAF8FEF7B0F8C4
:102B40002046FDF7C7FB300401D4FEF7D9FB002176
:102B5000AAF8001007B0BDE8F08F0000C800002000
:102B60008C0000200020074B024600EB400103EBE5
:102B70008101401C0A810A60C0B24A602028F4D357
:102B800070470000649D002010B5044690F837009F
:102B9000FFF734FF074994F8370009788842204648
:102BA00003D1BDE8104000F023B8BDE8104000F0AC
:102BB00003B80000AE00002090F837100B4A01EB7C
:102BC000410102EB810100230A8942B1521C0A81B2
:102BD0000A68C0E903230A6810610860704701228F
:102BE0000A81C3600361086048607047649D0020EB
:102BF00090F837100A4A01EB410102EB81010023F2
:102C00000A893AB1521C0A81C3604A680261D060E5
:102C10004860704701220A81C36003610860F7E7DA
:102C2000649D002010B50189002914D0012912D01B
:102C30000024022907D0D0E90013CA681461C1E951
:102C40000343D96005E0D0E90012C1E90342C2E9BB
:102C50000314C0E9002110BD70B5044690F8370098
:102C6000114900EB400001EB8001D4E9032000256D
:102C700040B10B895B1E0B81C26092B1106125616E
:102C8000E56070BD2AB10889401E088115610A609F
:102C9000F5E70D810D604D6094F83700FFF7BEFE3B
:102CA000EDE74860EBE70000649D002010B5FDF7FC
:102CB0000DFB0B4A002111700B4A0A49116051F8B3
:102CC000902F521C0A60094A1168491C1160084A79
:102CD0004FF080511160BDE81040FDF7FBBA0000D5
:102CE000AF000020909C002020010020F400002074
:102CF00004ED00E0044810B50078012803D1FEF788
:102D000019F80249086010BDC8000020BC0000206E
:102D10000A4810B5007800280ED1FEF70BF80849D4
:102D20000968401A07490A68824200D208600649C9
:102D30000A68824200D2086010BD0000C80000206E
:102D4000BC000020C0000020C400002070B5044674
:102D500014480078012824D1FDF7B8FA0546FDF79C
:102D60008FFF2168B1B11048814213D0886D10B136
:102D7000401E88650ED1208902280BD30B480078AD
:102D800040B92046FFF74EFF2068416D09B9084958
:102D900009688165FDF784FF2846BDE87040FDF7AE
:102DA00099BA70BDD0000020C89B0020C800002048
:102DB000CC000020034A00211160034A11800180E9
:102DC00070470000D4000020D80000202DE9F84F03
:102DD0001F46904689460646FDF778FA0090FDF7B3
:102DE0004FFF308A06F108054FF0000B50B1DFF8B5
:102DF000B8A09AF80000401CC0B28AF80000012870
:102E000017D018E0346A601C08D0641CC6E9084872
:102E1000FDF746FF0098FDF75DFA40E0FDF740FF43
:102E20000098FDF757FA46F6C55038800020BDE8F7
:102E3000F88FFFF75FFFFDF733FF0098FDF74AFAC1
:102E40005FEA895001D52C8900E001242D680AE051
:102E5000A9686D6800231A463046CDF80080FFF758
:102E600052FD641EA4B2002CF2D1346AFDF72EFA92
:102E70000546FDF705FF9AF80010491E11F0FF0105
:102E80008AF8001001D1FFF743FFFDF709FF28463C
:102E9000FDF720FA5FEA094001D4FEF731FAA7F8FE
:102EA00000B02046C3E70000C80000200EB5924ED7
:102EB000924D3068440004E0204601AA0021FFF74B
:102EC00005F828780128F7D101A8FEF717FB8C48F0
:102ED00032680168914204D9B1FBF2F15FEA010B5B
:102EE00003D100680A21B0FBF1FB4FF47A7942F27A
:102EF00010764FF00008FDF71DFF0290FDF7B2FEBF
:102F000080490860FDF7E2F90546FDF7B9FE7E4904
:102F10007E4C08682060C1F80080FDF7C1FE28469D
:102F2000FDF7D8F97A48236802689A4228D9794887
:102F3000824202D23046012113E07748824202D217
:102F400048460A210DE07548824202D264200146BB
:102F500007E07348824202D20A20494601E001207C
:102F60003146B2FBF1F15843B0FBF1F06D49301A34
:102F700080B208806C490A88824203D2088001E04E
:102F800068480680FEF790FB0025FDF79FF907468D
:102F9000FDF776FEDFF894A1DAF800403CE0FDF79B
:102FA00095F90090FDF76CFE614F3878401CC0B277
:102FB0003870012801D1FFF79DFEFDF771FE0098E2
:102FC000FDF788F9D4F89C00C4E92780FDF77EF965
:102FD0000090FDF755FE3878401E10F0FF00387065
:102FE0000CD1FFF795FE5348008838B1FDF758FE25
:102FF0000098FDF76FF9FFF759FE04E0FDF750FE6A
:103000000098FDF767F954F8A00F0544FDF75EF945
:103010000746FDF735FE246AFDF742FE3846FDF708
:1030200059F9002CBBD1E5B13A48854202D2374666
:10303000012013E03848854202D24F460A200DE0B5
:103040003648854202D26427384607E03448854234
:1030500002D20A27484601E001273046B5FBF0F5C9
:1030600001E000270125FDF731F90090FDF708FE8A
:10307000DAF80040FDF714FE009821E0D4F8A00033
:103080007843B0FBF5F080B2B04200D93046A4F8E6
:103090008C00B4F88E10814201D2A4F88E0004F1A5
:1030A000AC0201AB111D2046FEF7BEFDFDF70EF987
:1030B0008246FDF7E5FDD4F8C040FDF7F1FD50462E
:1030C000FDF708F9002CD9D11B480178012904D15A
:1030D00080F8008001A8FEF711FAFDF72BFE029997
:1030E000401A16490A68824200D2086001AA0021EB
:1030F0005846FEF7EBFEFEE6CC850008EC0000200B
:10310000E08500087C000020E0000020E8000020AE
:10311000E4000020801A060000093D00005A620207
:103120000084D717DC000020DE000020F80000201B
:10313000C80000208C000020DA000020F0000020F1
:1031400030B51D4A89B0002111601C4A1F4C116026
:103150001B4A11601B4A11701B4A1170226842B150
:103160001B4A1C4D13682D68AB4205D246F62C61F4
:1031700008E046F62B6105E0174B1D781F2D04D3A0
:1031800046F62A61018009B030BD032505910691FC
:10319000CDE907501148126824680068CDE90202A1
:1031A000049101941878009000230D4A0DA1124853
:1031B000FEF782FAE7E70000E0000020E8000020C8
:1031C000E4000020EC000020DA000020D085000898
:1031D000D8850008DC850008C8850008D48500086B
:1031E000AD2E000875432F4F532D49494920537484
:1031F0006174205461736B00E49E002038B504466E
:10320000022531B16B46022200F03AFBBDF8000006
:1032100028B184F836502046FFF71EFD38BD032044
:1032200084F83600F7E70000074B0022C0F8BC2006
:10323000196829B1C0F8C010C1F8BC001860704707
:10324000C0F8C020FAE70000F8000020D0E92F21E4
:1032500000234AB181B1C2F8C010C1F8BC20C0F847
:10326000C030C0F8BC307047054A116009B1C1F8E0
:10327000BC30C0F8C0307047C2F8C030F1E7000081
:10328000F8000020044A00211160044A1180044A19
:103290001160018070470000F8000020FC00002051
:1032A000F400002070B50025056085604560C560AC
:1032B000056145610446856129A0C4E9075065623E
:1032C000A562E5622563E5872564E565A4F860509D
:1032D000002104F16400FFF7F1F96567A567C4F800
:1032E0008050A4F888500020C4F8845004EB80017A
:1032F000401CCD6710F0FF00F8D06564C4F8A450FE
:10330000C4F8A850A56384F88A50C4F8B050C4F833
:10331000AC50A5874FF00040C4E9120525656565EE
:10332000A565A4F88C50A4F88E50C4F89050C4F849
:1033300094503434FDF7FEFCC4E91905C4F88050FC
:10334000C4F8845004F8015B202004F8015B04F801
:10335000015B04F8850B04A020C4C4E9005070BDD3
:103360003F5461736B000000200000002DE9FC5FFA
:103370009946DDE90C7592468B460446FCF7A6FF9C
:103380008046FDF77DFC474E3078401CC0B230705F
:10339000012801D1FFF7AEFCFDF782FC4046FCF7A7
:1033A00099FF0CB9404804680020288094F8360042
:1033B000DFF8F880082852D2DFE800F0040426265F
:1033C00004042626CDE900754B465246594604F1C1
:1033D0006400FFF77BF9FCF779FF0446FDF750FC2A
:1033E0003078401E10F0FF01317031D1FFF790FCB2
:1033F000B8F8000060B3FDF753FC2046FCF76AFF05
:10340000BDE8FC5FFFF752BC94F834000228D9D124
:1034100053465A46214600200097FFF774FAFCF7FE
:1034200055FF0446FDF72CFC3078401E10F0FF01DC
:10343000317001D1FFF76CFCFDF732FC2046FCF740
:1034400049FF5FEA09402AD4BDE8FC5FFDF758BF99
:10345000FDF726FC2046BDE8FC5FFCF73BBFFCF710
:1034600035FF0446FDF70CFC3078401E10F0FF01DC
:1034700031700CD1FFF74CFCB8F8000038B1FDF703
:103480000FFC2046FCF726FFFFF710FC04E0FDF7D9
:1034900007FC2046FCF71EFF46F62D602880BDE89D
:1034A000FC9F0000C80000201C0100208C000020B0
:1034B00010B5044600F050FA94F83610490704D4C9
:1034C0002046BDE81040FFF75FBB10BD2DE9F0417D
:1034D0000D460446FCF7FAFE0746FDF7D1FB002631
:1034E0002E8094F83600082864D2DFE800F0040447
:1034F00004040D394955FDF7D3FB3846FCF7EAFEC5
:1035000047F25310288037E02F4D2878401CC0B276
:103510002870012801D1FFF7EDFBFDF7C1FB38460C
:10352000FCF7D8FE94F88A00401E10F0FF0084F8E3
:103530008A0004D184F836602046FFF7B9FFFCF713
:10354000C5FE0446FDF79CFB2878401E10F0FF01E5
:10355000297001D1FFF7DCFBFDF7A2FB204609E053
:1035600094F88A00401E10F0FF0084F88A001BD1F6
:1035700001200EE0FCF7AEFEBDE8F041FDF7C0BE55
:1035800094F88A00401E10F0FF0084F88A000BD1E6
:10359000022084F8360007E094F88A00401E10F0FC
:1035A000FF0084F88A0003D0FDF77AFB3846E1E794
:1035B0000320EEE7FDF774FB3846FCF78BFE46F67A
:1035C0002D602880BDE8F081C8000020044808B5BF
:1035D0000068FEF769FA69460020FEF771F908BD38
:1035E0001C0100202DE9F84F984691468B46044671
:1035F000FCF76CFE0646FDF743FB594D2878401C4E
:10360000C0B22870012801D1FFF774FBFDF748FB19
:103610003046FCF75FFE0CB9524804680020524F58
:10362000C4F84090A8F8000094F8360046F6C55A51
:10363000082872D2DFE800F033332F2F33332F2FD7
:10364000FDF72EFB2046FCF745FEFFF72FFB04E0BD
:10365000FDF726FB2046FCF73DFEA8F800A0002061
:10366000BDE8F88F761C6664FCF730FE0446FDF773
:1036700007FB2878401E10F0FF00287047D1FFF7A5
:1036800047FB3888F0B3FDF70BFB2046FCF722FE22
:10369000FFF70CFB62E094F83400072813D0666C47
:1036A000701CDFD1FCF712FE0446FDF7E9FA28781A
:1036B000401E10F0FF002870CAD1FFF729FB3888A0
:1036C0000028C5D0BCE700231A4621461846CDF88D
:1036D0000090FFF718F9666CFCF7F8FD0446FDF75B
:1036E000CFFA2878401E10F0FF00287001D1FFF7B4
:1036F0000FFBFDF7D5FA2046FCF7ECFD5FEA0B4027
:103700002CD401E003E008E0FDF7FAFD26E0FDF728
:10371000C7FA2046FCF7DEFD20E0FCF7D7FD0446A3
:10372000FDF7AEFA2878401E10F0FF0028700BD18C
:10373000FFF7EEFA388838B1FDF7B2FA2046FCF709
:10374000C9FDFFF7B3FA04E0FDF7AAFA2046FCF73B
:10375000C1FD46F62D60A8F80000002630467FE740
:10376000C80000201C0100208C0000202DE9F04141
:103770000D460446FCF7AAFD0746FDF781FA3348DB
:1037800004B90468016832488C4209D1017839B122
:10379000FDF786FA3846FCF79DFD46F6635051E08A
:1037A0000021298094F836100126082943D2DFE849
:1037B00001F0043032383A3A3A3A05460078401C73
:1037C000C0B22870012801D1FFF794FAFDF768FA1A
:1037D0003846FCF77FFD042084F8360084F88A60C0
:1037E0002046FFF739FAFCF771FD0446FDF748FA69
:1037F0002878401E10F0FF01297001D1FFF788FAE8
:10380000FDF74EFA2046FCF765FDBDE8F041FDF7F7
:1038100077BD052000E0062084F8360084F88A6031
:1038200005E00720F8E714F88A0F401C2070FDF728
:1038300037FA3846E7E7FDF733FA3846FCF74AFD32
:1038400046F62D602880BDE8F08100001C010020B4
:10385000C800002010B500200246074B074C06E0C8
:1038600003EBC001401C0A608A80CA8080B22188B4
:103870008842F5D310BD0000B8980020F4850008F8
:10388000F0B5324C002647F27E252468042A08D081
:10389000B1B32E4D082A2D680D440BD0C0E9135149
:1038A00015E00A1B521E12F5803F2AD8521CC0E9AF
:1038B00013120CE0826C0A44171B7F1E8F4201D248
:1038C000C26400E0C564C16C0A1B02658164204AC1
:1038D000C16C1288B1FBF2F502FB15111D4A89B2C9
:1038E00002EBC102918889B11168F1B1CD6C2D1B39
:1038F0000D65076DAF4212D94D6965B12946F5E7EF
:10390000FFE7C6640665C6611D80F0BD466186613D
:10391000012110600BE0C0E90561486105E08C6998
:1039200074B1C0E90514606188619188491C918077
:10393000D48889B28C4200D2D180C2611E80F0BD91
:10394000C0E9051688611060EFE700000001002063
:10395000F4850008B898002010B5C169002915D079
:10396000002404650A68824204D142690A6032B1C7
:10397000946104E0D0E905235A6102B19361446186
:103980008461C461C4648888401E888010BD0000C2
:1039900010B500200246064B064C04E003EBC001C4
:1039A000401CCA8080B221888842F7D310BD000035
:1039B000B8980020F48500082DE9F05FFCF786FC3C
:1039C0000446FDF75DF953480178491CC9B20170FE
:1039D000012901D1FFF78EF9FDF762F92046FCF7C6
:1039E00079FCFDF7A7F94C4E83464C4930684FF0FF
:1039F0000309401C306009880025B0FBF1F201FB8F
:103A00001200474980B22F4651F830404FF0040A67
:103A1000C4B394F83600D4F8148008284DD2DFE8F7
:103A200000F04C044C104C254C32E06C3168421ACA
:103A30002265884240D184F836702046FFF738FD71
:103A40003BE0E06C3168421A2265884234D1E76578
:103A5000A4F86070FDF76EF920642046FEF725FF9C
:103A60002046FFF725FD84F8367020E0E06C3168D1
:103A7000421A226588421FD184F836A02046FFF7FB
:103A80006BFF1AE01CE0E06C3168421A2265884244
:103A900012D1E765A4F86070FDF74CF92064204668
:103AA000FEF703FF2046FFF757FF84F836A084F89F
:103AB000359084F8347000E001254446002DA7D0ED
:103AC000FDF738F91749A0EB0B000A68824200D2D3
:103AD0000860FCF7FBFB0446FDF7D2F80D4A1078AE
:103AE000401E10F0FF0111700DD1FFF711F90E48C3
:103AF000008840B1FDF7D4F82046FCF7EBFBBDE8A9
:103B0000F05FFFF7D3B8FDF7CBF82046BDE8F05FD4
:103B1000FCF7E0BBC800002000010020F48500088D
:103B2000B8980020040100208C0000201CB5084C2F
:103B300000216B4601AA0846FDF7BEFFBDF8000054
:103B40000028F5D120780128F2D1FFF735FFEFE703
:103B50008000002030B504461A4889B00025056071
:103B600019480560FFF776FE184A106840B11848FA
:103B7000184B01681B68994205D247F2132008E0F0
:103B800047F2122005E014490B781F2B04D347F2AB
:103B90001120208009B030BD0B2305950695CDE995
:103BA00007340E4B006812681B68CDE902300192A1
:103BB0000495087800900023094A0AA10E48FDF7F1
:103BC0007BFDE7E70001002004010020E8850008F4
:103BD000F0850008DC850008E4850008EC85000815
:103BE0002D3B000875432F4F532D494949205469F7
:103BF000636B205461736B00AC9F002030B52A4981
:103C000089B00023294A0B60294C2A4915681DB147
:103C10002468B4FBF5F203E022680A24B2FBF4F254
:103C20000A601146244A274C274D116023490B6036
:103C300023490B60002106E004EBC102491C93807C
:103C4000D38089B213602A889142F5D31F4C216832
:103C500041B11F491F4D0A682D68AA4205D247F29B
:103C6000483108E047F2473105E01B4A15781F2D1F
:103C700004D347F24631018009B030BD0B250593CE
:103C80000693CDE907500868144924680968CDE90E
:103C9000021004930194107800900023104A11A19F
:103CA0001648FDF709FDE7E708010020F885000840
:103CB000E0850008140100201801002010010020F8
:103CC0000C010020409B002008860008FC850008AD
:103CD00004860008DC850008F685000800860008D8
:103CE000C13D000875432F4F532D49494920546960
:103CF0006D6572205461736B0000000074A0002099
:103D000070B5022280F82A20204A012913681ED0AB
:103D1000016AE1B11E4A1944816112880025B1FB94
:103D2000F2F402FB14121B4C92B204EBC2021468B0
:103D30007CB1C91AC1611168D1B18C69E41ACC6136
:103D4000C669A6420ED90C6944B12146F5E7416A1D
:103D5000E0E705614561106001200BE0C0E9045116
:103D6000086105E04B6963B1C0E90413186148615B
:103D70009088401C9080D18880B2814200D2D0804F
:103D800070BDC0E9041548611060F1E71001002022
:103D900008860008409B002010B500200246064B14
:103DA000064C04E003EBC001401CCA8080B22188AD
:103DB0008842F7D310BD0000409B00200886000811
:103DC0001CB5DFF898B0DFF89880DFF898A00021E4
:103DD0006B4601AA0846FDF76FFE6846FDF7CEFA6E
:103DE000FCF7A8FF0746D8F800004FF00309401C75
:103DF000C8F80000BBF800100026B0FBF1F301FB8F
:103E00001300194980B251F83040ACB1A169D8F81B
:103E10000000256981420FD1204600F027F8208D4F
:103E2000022816D084F82A90A26812B12046E168D0
:103E300090472C46002EE8D0FCF77CFFC41B684658
:103E4000FDF7F6FADAF80010A142C0D2CAF8004035
:103E5000BDE701212046FFF753FFE5E7088600088C
:103E6000100100200C010020409B002010B5104ADA
:103E7000816900241288B1FBF2F302FB13110D4A91
:103E800089B202EBC10102690B68834203D10A6067
:103E90002AB1546103E043691A6102B153610122FE
:103EA00080F82A20046144618888401E888010BD03
:103EB00008860008409B0020044A0029116801D0B0
:103EC000014300E081431160704700003038024038
:103ED000044A0029116801D0014300E081431160C8
:103EE000704700004438024070B5204B1968204CE0
:103EF00011F00C0104D06610042903D0082903D066
:103F000004601BE0066019E0184A121F1168C1F333
:103F10008055116801F03F0115B1B6FBF1F101E0E8
:103F2000B4FBF1F114681268C4F388146143C2F35E
:103F30000142521C5200B1FBF2F1016019680F22DC
:103F400002EA11110B4A545C0168E14041601C68AF
:103F5000072505EA9424145D21FA04F484601B68A3
:103F600005EA5333D25CD140C16070BD08380240CD
:103F70000024F400080000207047000070B54B4892
:103F8000D0B048AC0FC884E80F00642111A8FCF73A
:103F9000C9FB64212AA8FCF7C5FB45A043AC0FC8A8
:103FA00084E80F0000F0A0F901A802F087FC0520CA
:103FB00002F05CFC04460198002804D0426905D157
:103FC0004FF0000103E04FF00002F8E781683CA0E9
:103FD000FCF7CEF9214601A802F000FD0123802262
:103FE00048A901A802F0D6FC10224CA901A802F0B1
:103FF00069FC47AD11AB102243A901A8009502F05E
:1040000007FD479C11AE3319102243A901A8009562
:1040100002F0FEFC479810220444331943A901A87A
:10402000009502F0F5FC479847AA0444311901A80D
:1040300002F094FB4798044401A802F001FC01A897
:1040400002F03CFC052002F011FC014601A802F040
:10405000C5FC0023802248A901A802F09BFC102285
:104060004CA901A802F02EFC2AAB224611A901A8F6
:10407000009502F0CDFC479C2AAE311947AA01A851
:1040800002F06CFB4798251801A802F0D9FB002428
:1040900004E0315D17A0FCF76BF9641CAC42F8D367
:1040A00015A0FCF765F950B0012070BD88850008A7
:1040B0005A68616E6753686953616E21212121003E
:1040C0000A202063697068657220696E666F2073CC
:1040D000657475702C206E616D653A2025732C20F7
:1040E000626C6F636B2073697A653A2025640D0AF0
:1040F00000000000256300000D0A00000CB500223E
:10410000274900920192086840F4803008604FF41B
:10411000A043086800F4003001900098401C009013
:10412000019810B900989842F3D10868800334D5FB
:10413000012001901A484030026842F0805202602B
:104140001848026842F4404202601548083002688C
:104150000260026842F400420260026842F4A05227
:104160000260031F104A1A600A6842F080720A60F7
:104170000A689201FCD50D4940F205720A60016897
:1041800021F003010160016841F002010160016852
:10419000C1F381010229FAD10CBD01920CBD0000CE
:1041A000003802400070004008544007003C0240C4
:1041B00070B51E480078012837D1FCF787F805460E
:1041C000FCF75EFD1A4C2078401CC1B22170012919
:1041D00001D1FEF78FFDFCF763FD2846FCF77AF866
:1041E000FDF738F8FCF772F80546FCF749FD207832
:1041F000401E10F0FF0121700CD1FEF789FD0D4823
:10420000008838B1FCF74CFD2846FCF763F8FEF750
:104210004DFD04E0FCF744FD2846FCF75BF8FDF794
:10422000CBFEBDE87040FDF725B870BD80000020D2
:10423000C80000208C000020124810B5016841F42D
:10424000700101601048016841F0010101600E4AEF
:1042500000210832116002680C4B1A400260031DF5
:104260000B4A1A60026822F48022026006480C3071
:104270000160FFF743FF03494FF000608039086099
:1042800010BD000088ED00E000380240FFFFF6FEA0
:10429000103000244FF0E020016921F00401016199
:1042A0000D490E4A0F4B0968B1FBF2F10C4AC9B235
:1042B000117059434FF47A73B1FBF3F1012353802A
:1042C000026942F002020261491E4161016941F046
:1042D00001010161704700001800002000127A00FF
:1042E0000000002040420F00F0B5012187B00846D1
:1042F000FFF7E2FD01210846FFF7DEFD0121102056
:10430000FFF7E6FD214F072209213846FCF7F6FDAD
:1043100007220A213846FCF7F1FD02258DF80450EA
:1043200078158DF80550002400908DF80640012680
:104330008DF8076069463846FCF7A4FD8DF80450F7
:1043400068028DF8055000908DF806408DF80760E2
:1043500069463846FCF796FD4FF4E130ADF80C4065
:104360000290ADF80E40ADF81040ADF814400C20AE
:10437000074CADF8120002A9204600F01DF80121FB
:10438000204600F007F807B0F0BD00000000024032
:10439000001001400029818902D041F4005101E060
:1043A00021F40051818170470246002012880A42A0
:1043B00000D00120704700007FB50446008A0D46FA
:1043C000C98820F4405001432182A08941F20C6148
:1043D0008843A9882A8911436A8902431143A1812C
:1043E000A08A20F44071A8890843A0826846FFF79C
:1043F0007BFD1A48844202D01948844201D10398B7
:1044000000E00298A189090400EBC00101EB001053
:10441000296801D5490000E08900B0FBF1F0642271
:10442000B0FBF2F109010B096FF018056B4300EBCB
:104430008300A3891D044FF0320306D503EBC000AF
:10444000B0FBF2F000F0070005E003EB0010B0FB5A
:10445000F2F000F00F00084320817FBD0010014002
:1044600000140140C1F3080181807047FEE7303835
:104470000A2801D2012070470020704770470000D1
:1044800070B5074D044680212846FFF78DFF0028B0
:10449000F9D0A1B22846BDE87040FFF7E3BF0000A5
:1044A0000010014030B58C1A802181540121002375
:1044B00003E05518491C4355C9B2A142F9D330BD98
:1044C00030B58B1A0021DCB203E05518491C445565
:1044D000C9B29942F9D330BD70B58C1A01230025B9
:1044E00005E0D61806445B1C06F8015CDBB2A3426B
:1044F000F7D3084400F8014C70BD002301E0835459
:10450000521C8A42FBD370477CB5DDE90645CDE9F4
:10451000004500F0D5FE7CBDFEB508AF97E8700001
:104520008DE8700000F017FFFEBDFEB508AF97E8FC
:1045300070008DE8700000F04FFFFEBD00F081BFFD
:104540007CB5DDE90645CDE9004500F086FF7CBD80
:104550007CB5DDE9065419B1012901D003487CBDC1
:10456000CDE9005400F0A1FF7CBD0000009FFFFFDB
:1045700010B54FF48C710120FBF7BFFE040003D08F
:1045800001F020F8204610BD002010BD10B50446F3
:1045900001F011F82046BDE81040FBF7C2BE000054
:1045A0002DE9F04FADF5006D002101200DF5806281
:1045B0006B4642F8210043F82010040601D51B2465
:1045C00000E0002484EA40044440491CE0B2FF2992
:1045D000EFDD00205D4D01210C0645F8201001D5CE
:1045E0001B2400E0002484EA4101401CC9B20A28CF
:1045F000F2DB574D632005F588542870002084F8BD
:104600006300012053F82010C1F1FF0152F821602E
:10461000710041EAE611C9B24E404F0047EAE1118C
:10462000C9B24E404F0047EAE111C9B24E404F00B7
:1046300047EAE111C9B24E4086F063012954605443
:10464000401CFF28DEDDDFF80C810020AA4608F5BB
:10465000806908F5006BFF2708F5885E1AF80010DE
:104660000D0601D51B2500E0002585EA4105EDB2C8
:1046700085EA010685EA012585EA014181EA0661AC
:1046800048F820104FEA316149F820104FEA3161B3
:104690004BF820104FEA31652F4941F82050215C3A
:1046A000002913D053F821600E9D354495FBF7FC8B
:1046B00007FB1C55DDF824C052F82550664496FBD4
:1046C000F7FC07FB1C6652F8266003E04FF000057C
:1046D0004FF0000685EA06260AD053F821C00D9D4A
:1046E000654495FBF7FC07FB1C5552F8255001E08B
:1046F0004FF0000586EA05450AD053F821100B9EBD
:10470000314491FBF7F607FB161152F8211001E036
:104710004FF0000185EA0161104D4EF820104FEA7C
:10472000316145F8201005F580654FEA316145F8A3
:1047300020104FEA31650A4941F8205000F101008C
:10474000FF288BDD0DF5006DBDE8F08F3CC3002028
:104750003CA100203CA200203CAE00203CB7002041
:104760003CBF002000F032BF00F096BF01F0DBB884
:1047700010B54FF484710120FBF7BFFD040003D096
:1047800001F0FDF8204610BD002010BD10B5044614
:1047900001F0EEF82046BDE81040FBF7C2BD000076
:1047A00010B5530701D0034810BDD20801F0EBF853
:1047B000002010BD009FFFFF7CB5DDE90645CDE977
:1047C000004501F0FBF87CBDFEB508AF97E870002E
:1047D0008DE8700001F03AF9FEBDFEB508AF97E82C
:1047E00070008DE8700001F072F9FEBD01F0A4B90F
:1047F00010B541F248010120FBF77FFD040003D012
:1048000001F0E5F9204610BD002010BD10B50446AA
:1048100001F0D6F92046BDE81040FBF782BD2DE936
:10482000F04707460868156891468846002457F8FF
:104830002460464031463846FCF70AFB6840641C59
:1048400024B23546102CF2DB396C4140786C704054
:10485000C8F80000C9F80010BDE8F08701F0BCB945
:104860007CB5DDE90645CDE9004501F01DFA7CBDCA
:10487000FEB508AF97E870008DE8700001F05FFAB0
:10488000FEBDFEB508AF97E870008DE8700001F03E
:1048900097FAFEBD01F0C9BA10B54FF48A71012034
:1048A000FBF72BFD040003D001F07DFB204610BD7B
:1048B000002010BD10B5044601F06EFB2046BDE897
:1048C0001040FBF72EBD0000F0B503680C6840688F
:1048D000496863401D4D484055FA83F10C78A5F5B1
:1048E000407101EB136601F58077367844EA06647F
:1048F000C3F30746C3F30723BE5D4FEA064C01F539
:104900000076F35C4CEA03231C4351FA80F107EB79
:10491000106309781B7841EA0361C0F30743C0F3D1
:104920000720F35C285C1B0443EA0020014384EA6F
:10493000316081EA304180EA3120136881EA302118
:104940004B401360516841405160F0BD84990008AC
:1049500001F02DBB01F06ABB13460A46022101F0AB
:104960007EBD13460A46052101F079BD10B54021F0
:104970000120FBF7C2FC040001D001F06DFD2046D0
:1049800010BD10B5044601F05BFD2046BDE81040A7
:10499000FBF7C7BC70B50E4690B0044601464022F6
:1049A0006846FBF760FE0025684600F075F86D1C50
:1049B0000A2DF9D3009821686A46084400900198AE
:1049C0006168084401900298A16808440290039825
:1049D000E16808440390049821690844049005980C
:1049E0006169084405900698A169084406900798F3
:1049F000E169084407900898216A084408900998DA
:104A0000616A084409900A98A16A08440A900B98C0
:104A1000E16A08440B900C98216B08440C900D98A7
:104A2000616B08440D900E98A16B08440E900F988E
:104A3000E16B08440F900020810012F8203073547D
:104A400032F8203031441B0A4B7052F820301B0CD6
:104A50008B7052F82030401C1B0ECB701028EBD30B
:104A60004021104603F0FCFA10B070BD10B584214F
:104A70000120FBF742FC040003D001F01CFD20469E
:104A800010BD002010BD10B5044601F00EFD2046FB
:104A9000BDE81040FBF745BC2DE9F8430C258046E6
:104AA000082304220021009500F036F80D26092382
:104AB000052201214046009600F02EF80E270A2319
:104AC000062202214046009700F026F80F240B230F
:104AD000072203214046009400F01EF80A23052215
:104AE00000214046009400F017F80B230622012114
:104AF0004046009500F010F80823072202214046A6
:104B0000009600F009F8092304220321404600978B
:104B100000F002F8BDE8F88370B550F8215050F865
:104B20002260049C354440F8215050F824606E40C7
:104B30004FEA364540F8245050F82360354440F899
:104B4000235050F822606E404FEA365540F822500C
:104B500050F82160354440F8215050F82410694045
:104B60004FEA316140F8241050F82340214440F8C6
:104B7000231050F822304B404FEA736140F8221066
:104B800070BD000010B5054CB2F5807F03D101F077
:104B9000A1FC002800D0204610BD0000009FFFFFB0
:104BA00010B501F0EDFC10F1510F00D1004810BD1F
:104BB000009FFFFF10B5E8210120FBF79EFB0400DA
:104BC00003D001F076FD204610BD002010BD10B5C9
:104BD000044601F05DFD2046BDE81040FBF7A1BB97
:104BE0001FB590F8D01011F00F020CD000210091E9
:104BF000019102910391C2F110026946843003F0E1
:104C000040FA04B010BD0020FBE7000010B5054CD1
:104C1000B2F5807F03D101F05CFD002800D0204672
:104C200010BD0000009FFFFF7CB5DDE90645CDE922
:104C3000004501F0FDFF7CBD11461A4602F03CB86C
:104C400010B54FF4C0710120FBF757FB040003D0EF
:104C500002F00BFA204610BD002010BD10B504462E
:104C600002F0FCF92046BDE81040FBF75ABB70B5D6
:104C70000C4616460546114602F06EFB06F1080189
:104C800004F1800002F068FB0021C1F11E0004EB7A
:104C9000810255F8200044F82100C1F11F0055F8A9
:104CA00020005060C1F13E0054F8203005EB810037
:104CB000C0F88030C1F13F0354F82330C0F884308D
:104CC00055F82130C0F800314368C0F8043154F879
:104CD0002100C2F800015068891CC2F80401202993
:104CE000D3DB70BD02F0C5B902F0D2B970B50D4684
:104CF00016460446114602F02FFB06F1080105F1A5
:104D0000800002F029FB06F1100104F5807002F02A
:104D100023FB0020C0F15E0154F8211045F820105B
:104D2000C0F15F0154F8212005EB80014A60C0F119
:104D30003E0255F8223004EB800242F8803FC0F179
:104D40003F0355F823305360C0F11E0254F822206F
:104D5000C1F80021C0F11F02801C54F82220C1F8C4
:104D600004212028D6DB70BD02F0A0B902F0ADB955
:104D70007CB5DDE90645CDE9004502F0B4F97CBD1E
:104D800011461A4602F0F4B910B580210120FBF754
:104D9000B4FA040003D002F0DBFA204610BD002074
:104DA00010BD10B5044602F0CDFA2046BDE8104013
:104DB000FBF7B7BA02F062BC02F07EBC70B5074DDB
:104DC000044640212846FFF7EFFA0028F9D0E1B267
:104DD0002846FFF747FB204670BD00000010014049
:104DE00013460A46022102F07DBC13460A460521FD
:104DF00002F078BC10B54FF4C4710120FBF77DFAC6
:104E0000040001D002F06AFC204610BD10B5044633
:104E100002F057FC2046BDE81040FBF782BA2DE9AE
:104E2000F04F87B004460020019002900390049058
:104E3000059001A802AB009010221946204601F00F
:104E4000E7FD002868D102989DF80F1000BA20F005
:104E5000FF059DF80B009DF81720054303980026D9
:104E600000BA20F0FF00084304994FF0614C09BAE2
:104E700021F0FF039DF813100B430599C4E9306638
:104E8000C4E9106609BA21F0FF01C4E940051143E5
:104E9000C4E92013042201F00106A6FB0C675B089D
:104EA0004FEA31016D0885EA060504EBC20643EAC4
:104EB000C0734FEA3000C6E93005C6E910134FEA67
:104EC0006202002AE7DC022204EBC20000F1400388
:104ED000F0E93096D3E900B5AA46012116E004EBCB
:104EE000C10500EBC108D5E9307C87EA09078CEAE7
:104EF000060CC8E9007CD5E9107503EBC10C87EA04
:104F00000B0785EA0A05CCE90075491C9142E6DBEE
:104F10005200082AD8DD002007B0BDE8F08F00005D
:104F20002DE9F04F8E46C97B0F2601F00F0100EBF3
:104F3000C105D5E93014D5E910351EF806700F2EDD
:104F400007F00F0A4FEA171B1DD003F00F081F09C7
:104F50000B094FEA017C43EA047321092F4C47EA0D
:104F600005774CEA151C34F8384000EBCA0581EA95
:104F70000448D5E930145940D5E9103584EA0804CD
:104F80007B4085EA0C0503F00F081F090B094FEA67
:104F9000017C43EA04732109204C47EA05774CEA77
:104FA000151C34F8384000EBCB0581EA0448D5E9FC
:104FB00030145940D5E910357B4084EA080485EA6D
:104FC0000C05761EB9D5200E1070200C5070200AEA
:104FD0009070080ED47040EA04201071080C40EA6A
:104FE00004405071080A40EA04609071D171280EA3
:104FF0001072280C5072280A9072180ED57240EA6E
:1050000005201073180C40EA05405073180A40EA56
:1050100005609073D373BDE8F08F0000B0B3000853
:1050200018B112B1002011607047014870470000AC
:10503000009FFFFFF0B5002398B192B180240025B6
:10504000156051B345181F4615F8016C06B10126CD
:1050500046EA0703D2F800C0BB4204D04FF0010675
:1050600003E01248F0BD4FF00006A1F1010706FB76
:1050700007F64CEA060CC2F800C015F8016C02D025
:105080004FF0010501E04FF0000516FB05F585EA3C
:105090000405ECB2491ED5D10CB1012000E000207E
:1050A0004FF41E4110FB01F0F0BD0000009FFFFF18
:1050B000F0B548B142B1431813F8013CCF1A17605C
:1050C0008B4203D9012202E00F48F0BD00221BB140
:1050D0000024144300220CE00124FAE7865C5E40C1
:1050E000BA4201D3012500E000256E432643F4B205
:1050F000521C8A42F2D30CB1012000E000204FF490
:105100001E4110FB01F0F0BD009FFFFF70B548B1DC
:1051100042B1431813F8013CCD1A15608B4203D9F4
:10512000012202E0104870BD002223B10023134386
:105130000022491E0CE00123F9E7865CAA4201D354
:10514000012400E0002416FB04F41C43E3B2521CCB
:105150008A42F2D30BB1012000E000204FF41E413F
:1051600010FB01F070BD0000009FFFFF70B5002331
:1051700080B17AB100241460A1B144181D4614F81E
:10518000014C04B1012444EA05031668AB4203D084
:10519000012402E0044870BD00244C4326431660FD
:1051A000491EEAD1002070BD009FFFFFFBF7BCFE47
:1051B000094C4FF4FA756E0008212046FBF7B0FE4B
:1051C0002846FBF7BFFD08212046FBF7A7FE304627
:1051D000FBF7B8FDF0E7000000100240FBF7BEFE51
:1051E000094C4FF47A756E1010212046FBF798FE9B
:1051F0002846FBF7A7FD10212046FBF78FFE30461F
:10520000FBF7A0FDF0E7000000100240FBF7C0FE36
:10521000084C4FF4007529462046FBF781FEFA2022
:10522000FBF790FD29462046FBF778FEFA20FBF7B6
:1052300089FDF0E70018024000B58BB0FBF742F89B
:10524000FFF728F8FEF79AFEE8B109A8FBF726FF5A
:10525000002009A9032205900690CDE907210C49F9
:1052600080230A6BCDE903301E208DE80700002360
:10527000084A09A10B48FCF71FFA09A8FCF712F924
:105280000BB0002000BD08A0FBF772F8FEE700009D
:10529000E018002035830008537461727420205494
:1052A00061736B0030010020CFB5CDB3D3B2BCFE2B
:1052B000B3F5CABCBBAFCAA7B0DCA3A10D0A0000FE
:1052C0002DE9FF478146DDE90C641F4615468846F7
:1052D000100704D06FF0210004B0BDE8F087B8F1EA
:1052E000000F1BD033E0102231466846FBF776F9F9
:1052F000234632464146484600F0A3F80020215C90
:105300003A5C51402154401C1028F8DB10226946B9
:105310003846FBF763F91034103D1036002DE2D10A
:1053200017E00020315C3A5C51402154401C1028A9
:10533000F8DB23461A464146484600F082F8102220
:1053400021463846FBF74AF91034103D1036002D3F
:10535000E7D10020C0E72DE9F0471C68DDE90965C9
:10536000DDF820809946174682460F2C03D96FF04E
:105370002000BDE8F08799B128E02CB943461A46D1
:105380000121504600F05DF816F8010B18F80410E2
:10539000414005F8011B08F80400641C04F00F04E8
:1053A0007F1EEAD214E02CB943461A46012150462A
:1053B00000F047F818F8040016F8011B484005F8FB
:1053C000010B08F80400641C04F00F047F1EEAD2ED
:1053D0000020C9F80040CCE72DE9F04F1468DDE962
:1053E0000A65DDF824A0984691460F4683460F2CA7
:1053F00021D96FF02000BDE8F08F94B953464246A2
:105400000121584600F01DF8102008EB000111F8AA
:10541000012D521C12F0FF020A7002D1401E00281A
:10542000F3DC16F8010B1AF804104140641C05F86F
:10543000011B04F00F047F1EDFD20020C9F80040DA
:10544000D9E710B4144601291A46214602D010BCEF
:1054500002F050BA10BC02F029BC2DE9F047824698
:10546000DDE9086514680020984691460F460F2C28
:1054700016D96FF02000BDE8F0873CB943461A46C4
:1054800001215046FFF7DDFF0028F4D116F8011B7B
:1054900018F804205140641C05F8011B04F00F04A7
:1054A0007F1EEAD2C9F80040E5E72DE9FF4F8DB035
:1054B0001609DDE91A541F468A4602F00F096FF0FB
:1054C0002100102A74D3B2F1807F71D80D986B46F9
:1054D0003A46012100F58C70FFF7B3FFE8460DF165
:1054E000100B002864D12FE0B9F1000F0CD0BAF1F5
:1054F000000F09D146B99DE80F0008AF87E80F00FB
:105500006946084602F08DF9002042465F46295C54
:10551000135C59403954401C1028F8D304AB1A4688
:1055200051460D98FFF78DFF002841D14246395C66
:10553000135C59402154401C1028F8D36946084692
:1055400002F06FF910341035761ECDD2B9F1000F8C
:105550002DD0BAF1000F05D06F46A4F1100600203F
:10556000D84609E008AFF8E7315C2154295C3A5C81
:10557000514008F80010401C4845F5D305E0315C67
:105580003A5C514008F80010401C1028F7D304ABD7
:105590001A4651460D98FFF754FF002808D118F815
:1055A00000103A5C51403154401C1028F7D30020C1
:1055B00011B0BDE8F08F002803D04FF48C7102F0D9
:1055C0004FBD70474FF48C71FBF7ACB82DE9F04F2D
:1055D000C7B0054616460F466846FFF7F3FF05F1CC
:1055E00008043246394668466C6000F055F846902B
:1055F000F0BB00982860DDE9001000EB011101C943
:1056000001C401C901C401C944F8080B51F81C09BF
:1056100044F8040C2D6828E01E4B002203F5905935
:1056200003F5B05A03F5D05803F5F05B01C953FAFE
:1056300080F63778521C59F82760C0F3072713F813
:1056400007C05AF82C707E40C0F3074703EB106088
:10565000DF5D90F800C058F827705BF82C004740D9
:105660007E4040C4042AE1DB20396D1E002D00E09D
:1056700008E0D1DC08682060486860608868A06045
:10568000C868E0606846FFF796FF469847B0BDE8F7
:10569000F08F00003CA100202DE9F04116460F4696
:1056A0000546802A08D0C02E08D0B6F5807F0BD0E2
:1056B0006FF01F00BDE8F0810A2000E00C20624C72
:1056C0002860206810B105E00E20F8E7FEF768FFBB
:1056D0000120206005F1080400206C6008E007EB61
:1056E0008001CA78096862F31F6144F82010401CE9
:1056F000B0EB561FF3D32868544D0A28A5F508537C
:1057000004D00C282BD00E2828D155E0002154F8C5
:105710000C2B55F82100424001CCC0F30726C0F302
:1057200007479E5DDF5D86EA0726724003EB106641
:10573000367882EA064253FA80F63678491C82EAC5
:105740000662226054F80C6C5640666054F8082CCF
:1057500072405040C4E902200A29D8D371E00021E8
:10576000226855F8210042406069C0F30726C0F363
:1057700007479E5DDF5D86EA0726724003EB1066F1
:10578000367882EA064253FA80F63678491C82EA75
:105790000662A26166685640E661A26872402262B3
:1057A000E66856406662226972405040C4E90A20A9
:1057B00018340829D4D344E00022206855F8221078
:1057C0004840E169C1F30726C1F307479E5DDF5DED
:1057D00086EA0726704003EB1166367880EA0640B9
:1057E00053FA81F6367880EA066626626068704071
:1057F0006062A6684640A662E0687040E06253FAC4
:1058000080F73F782669C0F3074C7E40C0F3072736
:1058100013F80CC0DF5D03EB10603F0287EA0C4712
:1058200000787E4086EA006020636669521C46402C
:105830006663A06970404140C4E90E012034072A24
:10584000BBD3002036E70000240100203CC3002029
:10585000F0B54C08DDE90576E508B1F5807F05D0A7
:10586000B1F5007F02D06FF01F00F0BD1C60346006
:105870001060284438600020F0BD10B5040007D047
:10588000FFF799FE04F58C70BDE81040FFF793BE5A
:1058900010BD10B50446FFF795FE04F58C70BDE809
:1058A0001040FFF78FBE70B586B00E46044602A9C1
:1058B00003A81546CDE9000104AB05AA29463046E8
:1058C000FFF7C6FF00280CD1DDE9022104F58C703A
:1058D000FFF7E2FE002804D1DDE904212046FFF7AE
:1058E00075FE06B070BD70B586B00E46044602A9BE
:1058F00003A81546CDE9000104AB05AA29463046A8
:10590000FFF7A6FF00280CD1DDE9022104F58C7019
:10591000FFF7C2FE002804D1DDE904212046FFF78D
:10592000BBFE06B070BD2DE9F043D0E900569946A4
:1059300000F10803002414E06D1CEDB25F5D3E44ED
:10594000F6B213F806C003F805C09F5512F804809C
:10595000674453FA87F73F7888EA070809F8048014
:10596000641C8C42E8D3C0E900560020BDE8F083F7
:10597000002803D04FF4847102F072BB70474FF4DB
:105980008471FAF7CFBEF0B5002308C008C0C35435
:105990005B1CFF2BFBDD00231D461C46934200D3FE
:1059A0000023065DCF5C35443D44EDB25B1C475D92
:1059B0000755641C4655FF2CF0DDF0BD2DE9F05F66
:1059C0008346DDE90A641F4615468A46500703D020
:1059D0006FF01700BDE8F09FBAF1000F19D031E069
:1059E000D6F80080D6F804902346324651465846F1
:1059F00000F0A2F80020215C3A5C51402154401C88
:105A00000828F8DBC7F800800834083DC7F8049080
:105A10000836002DE4D117E00020315C3A5C51409B
:105A20002154401C0828F8DB23461A4651465846A4
:105A300000F082F854F8040B386054F8040B083D69
:105A400078600836002DE7D10020C3E72DE9F04744
:105A50001C68DDE90965DDF8208099461746824615
:105A6000082C03D36FF01500BDE8F08799B128E04A
:105A70002CB943461A460121504600F05DF816F84D
:105A8000010B18F80410414005F8011B08F8040048
:105A9000641C04F007047F1EEAD214E02CB94346CC
:105AA0001A460121504600F047F818F8040016F88D
:105AB000011B484005F8010B08F80400641C04F0C1
:105AC00007047F1EEAD20020C9F80040CCE72DE988
:105AD000F05F1468DDE90B65DDF828A09846914673
